:100000000C942A000C943F000C943F000C943F0089
:100010000C943F000C943F000C943F000C943F0064
:100020000C943F000C943F000C943F000C943F0054
:100030000C943F000C943F000C943F000C943F0044
:100040000C943F000C943F000C943F000C943F0034
:100050000C943F0011241FBECFE5D4E0DEBFCDBF1E
:1000600010E0A0E6B0E0E6ECF1E002C005900D92F1
:10007000A637B107D9F70E94DA000C94E1000C947E
:10008000000088B3806F88BBC29A8FE087BB96B3AD
:10009000C298C29A26B3C29825952595259525958F
:1000A000892F807F822B089528B32F70982F907FFF
:1000B000922B98BBC29AC29830E1839FC001112451
:1000C000822B88BBC29AC298089588BBC29AC298F4
:1000D00008952FEF80E792E0215080409040E1F7B3
:1000E00000C0000008958FEF87BB87BBC098C19800
:1000F000C298C29AC59AC2982FEF80E792E0215029
:1001000080409040E1F700C0000088E20E94540067
:100110002FEF80E792E0215080409040E1F700C04F
:100120000000C0988EE00E9454002FEF80E792E01C
:10013000215080409040E1F700C00000C09886E068
:100140000E9454002FEF80E792E0215080409040C1
:10015000E1F700C000000895C09881E00E945400BB
:100160002FEF80E792E0215080409040E1F700C0FF
:1001700000000895C09A0E9454002FEF80E792E09B
:10018000215080409040E1F700C0000008950F9397
:100190001F93CF938C01C0E0F801EC0FF11D80811B
:1001A000882321F00E94BA00CF5FF6CFCF911F9134
:1001B0000F9108950E94730080E690E00E94C700AE
:0601C000FFCFF894FFCF11
:1001C60068656C6C6F6F6F6F6F20776F726420203D
:0601D6003A29292920004E
:00000001FF
