:100000000C942A000C9434000C9434000C943400AA
:100010000C9434000C9434000C9434000C94340090
:100020000C9434000C9434000C9434000C94340080
:100030000C9434000C9434000C9434000C94340070
:100040000C9434000C9434000C9434000C94340060
:100050000C94340011241FBECFE5D4E0DEBFCDBF29
:100060000E9436000C9465000C9400008FEF81BB59
:1000700038E024E092E081E032BB4FEF53ED60E3E3
:10008000415050406040E1F700C0000022BB4FEFFC
:1000900053ED60E3415050406040E1F700C0000084
:1000A00092BB4FEF53ED60E3415050406040E1F7A9
:1000B00000C0000082BB4FEF53ED60E34150504061
:0E00C0006040E1F700C00000D7CFF894FFCFFA
:00000001FF
